:020000040800F2
:1000000088520020ED010008F1010008F30100080A
:10001000F5010008F7010008F901000800000000E0
:10002000000000000000000000000000FB010008CC
:10003000FD01000800000000FF01000801020008A7
:10004000030200080302000803020008030200087C
:10005000030200080302000803020008030200086C
:10006000030200080302000803020008030200085C
:10007000030200080302000803020008030200084C
:10008000030200080302000803020008030200083C
:10009000030200080302000803020008030200082C
:1000A000030200080302000803020008030200081C
:1000B000030200080302000803020008030200080C
:1000C00003020008030200080302000803020008FC
:1000D000030200085115000803020008030200088B
:1000E00003020008030200080302000803020008DC
:1000F00003020008030200080302000803020008CC
:1001000003020008030200080302000803020008BB
:1001100003020008030200080302000803020008AB
:10012000030200080302000803020008030200089B
:1001300000F002F800F04AF80AA090E8000C8244AF
:100140008344AAF10107DA4501D100F03FF8AFF28C
:10015000090EBAE80F0013F0010F18BFFB1A43F0A5
:1001600001031847441F0000641F0000103A24BF19
:1001700078C878C1FAD8520724BF30C830C144BF0C
:1001800004680C607047000000230024002500264E
:10019000103A28BF78C1FBD8520728BF30C148BFEA
:1001A0000B607047662901F03287642900F04680B1
:1001B000002070471FB500F07DFB040000200021E7
:1001C00001F03AFCE0601FBD10B510BD00F08AFCE4
:1001D0001146FFF7EFFF01F063FA00F0A8FC03B44B
:1001E000FFF7F2FF03BC01F00BFA000008480047DC
:1001F000FEE7FEE7FEE7FEE7FEE7FEE7FEE7FEE7D7
:10020000FEE7FEE703480449024A044B704700003A
:1002100031010008884E002088520020884E0020BE
:10022000704700000FB4044910B503AA029800F00B
:100230002FFB10BC5DF814FB040000202DE9F041F9
:100240000646002410687529314616A510D0AFF374
:100250000080002802DA404213A507E031688A07CF
:1002600001D512A502E0490704D511A5012401E03A
:10027000AFF3008000210A2206F1240709E0B0FB59
:10028000F2FCB0FBF2F302FB1C003030785418464D
:10029000491C0028F3D123462A463046BDE8F041E8
:1002A00000F08FB8000000002D0000002B000000BF
:1002B000200000002DE9F0410F460546002028628D
:1002C0002846E968884770B3252805D0D5E901217B
:1002D0009047286A401CF2E7E968284600268847CC
:1002E0006C2804460AD0682C08D04C2C35D06A2CD7
:1002F00031D0742C31D07A2C2FD016E0E968064624
:1003000028468847B042044608D16C2E23D04FF4CB
:1003100080662846E9688847044606E06C2E03D0CC
:100320004FF4807601E01EE04026E4B1A4F14100E4
:10033000192802D8203446F400663A462146284659
:100340002E60FFF72FFF60B1012808D0FF1D27F0B6
:1003500007070837B4E78026DBE70026D9E73F1D0B
:10036000AEE72046B2E7286ABDE8F0814FF0000210
:1003700000B5134694469646203922BFA0E80C509B
:10038000A0E80C50B1F12001BFF4F7AF090728BF76
:10039000A0E80C5048BF0CC05DF804EB890028BFF2
:1003A00040F8042B08BF704748BF20F8022B11F01B
:1003B000804F18BF00F8012B704770477047704797
:1003C00070472DE9F0470D4699469246044600F1E4
:1003D00024080168880604D5E06921F01001216035
:1003E00000E00120A84201DD471B00E00027A169D1
:1003F0007A1902EB0900081AA0612078C00602D41D
:100400002046AFF30080002608E0D4E901211AF865
:1004100006009047206A401C761C20624E45F4DBA3
:100420002078C0060AD52046AFF3008006E0D4E964
:10043000012130209047206A401C2062381EA7F11D
:100440000107F4DC07E0D4E9012118F80500904722
:10045000206A401C2062281EA5F10105F3DC20461D
:10046000AFF300802078000602D50220BDE8F087B7
:100470000120FBE770472DE9FF4F0C461E464FF069
:10048000FF378BB0D2E90001DDF860800A908A4620
:10049000C1F30A5505B93D46002108464FF000005A
:1004A000BAF1000F00F4400005DA00EB80004FF4D1
:1004B000400101EA50004FEA9059B9F1010F00DD07
:1004C000B9460A9850EA4A000ED044F61050A5F2F8
:1004D000FF3545432F14B8F1000F1ED07542291E79
:1004E0001EDDC9F100021CE0B8F1010F4FF0000061
:1004F00001D0302103E0F24305E02154401CB0421A
:10050000FBDB30460022002121540B99C1F8088002
:10051000C1E900200FB0BDE8F08FBD1B6D1CDEE708
:100520004A4600DA694206A800F066FA06AB93E88C
:10053000070003AB83E8070050460A9900F03EFB32
:100540008DE80700A0F500501F3800900398002D9B
:1005500009DD42F21F014A46084403A90390684698
:1005600000F09DFD08E0A0F500504A461F3803A9A1
:100570000390684600F0A7FD8DE807000004000C1A
:1005800003D04FF0FF30410800E01046B8F1000FF3
:1005900003D00022009215461EE0751E05D400F01F
:1005A0008DF9303262556D1EF9D5B34601220843EC
:1005B00002D000227F1C04E02078302801D10022E4
:1005C0007F1E002A099786D01DE0112D07DA00F062
:1005D00075F9303262556D1C50EA0102F5D10843BD
:1005E00002D00098C8B10EE00021681E05E0235C2F
:1005F000625C63542254401E491C8142F7DBAB46C7
:10060000A81B401E0990002004F80B000B98099AC3
:10061000C0F80880C0E9002B7CE711264FF00008E5
:1006200059E72DE9F04F88460446D21D22F0070114
:1006300091B0D1E90001CDE90A0100F0CDFF0246F9
:100640000B98C00F01D02D2007E02068810701D54D
:100650002B2002E0202101EAC000032A099001D0EA
:10066000072A05DB03464146204600F085F90BE1E9
:100670002078800601D5E06900E00620B8F1650F1A
:10068000814606D0B8F1660F18D0B8F1670F70D167
:1006900031E00020B9F1110F009001DB112301E0DE
:1006A00009F101030AAA01A90CA8FFF7E4FEDDE99C
:1006B0000C70002609F10105834647E001204B46F6
:1006C00000904FF000470AAA01A90CA8FFF7D3FE3B
:1006D000DDE90DB00C995D46002610B909F1010065
:1006E0000D18B9EB050003D4C0F1FF3609F101057F
:1006F000A5EB09002BE0B9F1010F01DA4FF0010978
:100700000020B9F1110F0090484601DD112300E0EF
:1007100003460AAA01A90CA8FFF7ADFEDDE90C709B
:100720004D4600268346207800070AD4AB4500DA00
:100730005D4601A8012D04DD411911F8011C302985
:1007400007D04F4502DA17F1040F04DA0120824680
:100750000FE06D1EEEE7002F02DCED1B3E4403E0D0
:10076000781CA84200DD7D1CB81B00F1010A4FF087
:1007700000472078000703D4AA4501DB4FF0FF3A79
:100780000021B7F1004F0DF143088DF8431024D03C
:1007900002202B23002F01DA7F422D230A21021E83
:1007A000A0F1010000DC5FB197FBF1FC97FBF1F2D7
:1007B00001FB1C7C17460CF1300C08F801CDEEE76C
:1007C000A8F1010003702188090501D5452100E049
:1007D0006521A0F1010800F8011C09980FA9A1EBFF
:1007E0000807FF1D00B10120411901EBEA70A16962
:1007F0003844081A401EA0612078C00602D4204662
:10080000AFF30080099828B1D4E901219047206A0C
:10081000401C20622078C00622D52046AFF300801D
:100820001EE0002E04DBB34502DD01A8805D00E080
:100830003020D4E901219047206A401C2062761CB8
:10084000AAF101005FEA000A0AD100F033F8C0689B
:100850000168405CD4E901219047206A401C206275
:10086000281EA5F10105DCDC07E0D4E9012118F818
:10087000010B9047206A401C2062381EA7F1010737
:10088000F3DC2046AFF30080032011B043E6000004
:10089000074B70B50D467B4400F05BF804462846D4
:1008A00000F018F910B14FF0FF3070BD204670BD58
:1008B000EB0D000000487047484E002030B5B0F105
:1008C0000A024FEA900E71F100034EEA817EB0EB0E
:1008D0000E0061EB91014FEA101E4EEA017E10EB13
:1008E0000E0041EB11114FEA102E4EEA016E10EB93
:1008F0000E0041EB11214FEA104E4EEA014E10EB73
:100900000E0041EB1141401841F100014FEAD000C7
:1009100040EA41704FEAD10110EB80054FEA8104B3
:1009200044EA907444EB01046D1944EB0404521B37
:10093000A3414FF0000348BF0A3200D530BD401C30
:1009400041F1000130BD000001694A1C02610878D4
:10095000704700B58FB0CDE90131002105910549FF
:100960007944CDE9031011466846FFF7A3FC0FB0A8
:1009700000BD0000E5FFFFFF2DE9F0411F460446E2
:1009800003260168072A01F4006004DB08B116A5FC
:1009900005E016A503E008B115A500E015A521F0B6
:1009A00010002060A069C01EA0610FB1401EA061B0
:1009B0002046AFF300804FB1D4E90121384690477B
:1009C000206A401C2062C01C206206E0206AFAE710
:1009D000D4E9012115F8010B9047761EF8D2204684
:1009E000AFF30080BDE8F0814E414E006E616E00B5
:1009F000494E4600696E66002DE9F047814616466D
:100A00008AB0334878440DC88DE80D0030487844EA
:100A1000801C03AC0DC884E80D0041F69B300844EF
:100A2000372190FBF1F290FBF1F5A5F1800501FB78
:100A300012041B3C02D56442012000E00020DFF8D4
:100A400090A080460027FA44AAF1BE0A0DE0E00714
:100A500009D03246684607EB47010AEB810100F0F6
:100A600032FB8DE8070064107F1C002CEFD1184F7B
:100A70007F44AC3F18E0E80714D007EB04100DF1F9
:100A8000180A90E80E008AE80E00C068F04201D112
:100A900098190890324606A903A800F014FB03AB8E
:100AA00083E807006D10641C002DE4D132466946CE
:100AB000B8F1000F03A802D000F0F1FA01E000F055
:100AC00002FBC9E90001C9F808200AB0BDE8F087B7
:100AD00088160000007B00F08000704700487047D7
:100AE000284E00207546FFF7F9FFAE46050069461F
:100AF000534620F00700854618B020B5FFF782FB6B
:100B0000BDE820404FF000064FF000074FF000080E
:100B10004FF0000B21F00701AC46ACE8C009ACE88F
:100B2000C009ACE8C009ACE8C0098D46704704466E
:100B3000AFF300802046FFF752FB00004FF0013C6E
:100B400050F8042B51F8043B9A4221D1A2EB0C033C
:100B5000934313EACC1317D150F8042B51F8043BFC
:100B60009A4215D1A2EB0C03934313EACC130BD199
:100B700050F8042B51F8043B9A4209D1A2EB0C0324
:100B8000934313EACC13DBD04FF00000704700BF53
:100B9000D01A01BAB1FA81F101F0180122FA01F07C
:100BA000CB40C1F12001DBB2C0B2C01A2CFA01F374
:100BB000D11A914311EAC311E6D170475FEA400CA4
:100BC00008BF91F0000F4FEA8C234FEAC12243EA9D
:100BD00051514FEA1C5018BF00F5F0404FEA300069
:100BE00018BF41F000415FEA6C5C00F02980BCF165
:100BF000FF3F08BF40F080407047130C06BF12044F
:100C00004FF0100C4FF0000C130E04BF12020CF149
:100C1000080C130F04BF12010CF1040C930F04BF56
:100C200092000CF1020CD30F04BF52000CF1010C26
:100C300011464FF00002A0F11F00A0EB0C0070471E
:100C400011F0004F08BF704731F000413FF4D5AFBD
:100C50000B0C06BF09044FF0100C4FF0000C0B0EEC
:100C600004BF09020CF1080C0B0F04BF09010CF1C1
:100C7000040C8B0F04BF89000CF1020CCB0F04BFD6
:100C800049000CF1010CCCF12003A0EB0C0022FA7E
:100C900003F302FA0CF241EA030100F1010070478C
:100CA00020F07F4C80EA030023F07F47ACEB070382
:100CB00003F57C5300F0004003F1FF032DE9804968
:100CC0004FEA154B09B44FEA144325EA0B4E24EAC8
:100CD00003480FF2042606EB132749083E785FEA23
:100CE000320203FB0667C7F5000707FB06F64FEA6B
:100CF00054374FEAD64606F1020607FB066CCCF1E4
:100D0000005C4FEA1C472CEA074C07FB06F40CFB7F
:100D100006F504EB15464FEA961634BF00204FF057
:100D200000404FEAD13706FB07FC4FEA1C4C0CFB96
:100D30000BF7D21B03FB0CF761EB07010CFB0EF763
:100D4000B0EB074072EB17420CFB08F734BFA2EB85
:100D50000742B2EB074261EB17414FEA0C444FEAFE
:100D6000910706FB07FC4FEA1C4C0CFB0BF7B0EBA2
:100D7000C74072EB573203FB0CF734BFA2EBC742FC
:100D8000B2EBC74261EB57310CFB0EF7B0EBC7007B
:100D900072EB57720CFB08F734BFA2EBC702B2EB41
:100DA000C70261EB5771039F4FEA816141EA9211DB
:100DB00004EBCC044FEAD1374FEA826206FB07FC12
:100DC00042EA90124FEA80604FEA1C4C0CFB0BF792
:100DD000D21B03FB0CF761EB07010CFB0EF7B0EB2A
:100DE000074072EB17420CFB08F734BFA2EB074237
:100DF000B2EB074261EB17414FEA8C554FEA91077E
:100E000004EB9C2406FB07FC4FEA1C4C0CFB0BF785
:100E1000B0EBC74072EB573203FB0CF734BFA2EBC9
:100E2000C742B2EBC74261EB57310CFB0EF7B0EB98
:100E3000C70072EB57720CFB08F734BFA2EBC70276
:100E4000B2EBC70261EB577115EB4C254FEA81619C
:100E500041EA92114FEA82624FEAD13742EA901298
:100E600006FB07FC44F100044FEA80604FEA1C4C8B
:100E70000CFB0BF7D21B03FB0CF761EB07010CFB20
:100E80000EF7B0EB074072EB17420CFB08F734BFCC
:100E9000A2EB0742B2EB074261EB174115EB1C15C1
:100EA0004FEA813141EA92414FEA823242EA90426E
:100EB0004FEA80304FEA0C7644F1000448EA0343DD
:100EC0004EEA0B484FF0000EB2EB080C71EB030733
:100ED00024BF624639464EEB0E0E4FF0000B001851
:100EE000524149414BEB0B0BB2EB080C71EB030782
:100EF0007BF1000B24BF624639464EEB0E0E4FF0DD
:100F0000000B0018524149414BEB0B0BB2EB080CA4
:100F100071EB03077BF1000B24BF624639464EEBB1
:100F20000E0E51EA020718BF46F0010616EB0E76C8
:100F300055F1000254F1000103D5BDE88901BDE877
:100F40000088BDE88901BDE80048B619524141EB6F
:100F50000101A3F10103704780807F7E7D7C7B7A55
:100F60007978777676757473727171706F6E6E6D55
:100F70006C6C6B6A6A6968686766666564646363FB
:100F800062616160605F5F5E5E5D5D5C5C5B5B5A81
:100F90005A595958585757565655555554545353EE
:100FA00052525251515050504F4F4F4E4E4D4D4D49
:100FB0004C4C4C4B4B4B4A4A4A4949494848484794
:100FC00047474746464645454544444444434343D2
:100FD0004342424242414141002B26D4770021D076
:100FE0001CB54FEA370703B44FF010004FF0100163
:100FF0004FF000000FBCBDE810400BF1010BBBF13E
:10100000010F08BF5FEA170722BF12F1010211F1B9
:1010100001014FF0004143F1000300F0004043EABA
:1010200000007047F9D35708DAE746EA064613F19D
:10103000400F4FEA16461FDD13F1200FDFBF1643A6
:101040000A46002120335B42C8D0C3F1200746EA9C
:10105000064602FA07F74FEA164646EA0706C3F1C4
:10106000200722FA03F201FA07F721FA03F14FF001
:10107000000342EA0702B1E746EA020646EA0646EC
:101080004FEA164646EA0106BCBF46EA0646360C5B
:101090004FF000034FF000024FF000019EE72DE9F2
:1010A000C048934630B491E8380007C831EA400C94
:1010B00048BF34EA430C03D5FFF7F2FDFFF78CFF7E
:1010C000F0BCBDE800882DE9C048934630B491E8F3
:1010D000380007C810F0804F08BF13F0804F03D1CD
:1010E00000F005F8FFF778FFF0BCBDE8008820F0BD
:1010F0007F4780EA030023F07F4C07EB0C03A3F546
:101100007C5300F00040A3F1FE0392F0000F00F0CA
:10111000B38095F0000F00F077802DE901494FEA88
:1011200011404FEA144621EA004800FB06FC24EA7D
:10113000064708FB06F607FB08F800FB07F718EB65
:1011400006484CEB164C4FEA124B18EB07484FEA97
:1011500015464CEB174022EA0B4E0BFB06FC25EA2A
:1011600006470EFB06F607FB0EFE0BFB07F71EEB12
:10117000064E4CEB164C4FF000061EEB074E4CEBA8
:10118000174B18EB0B0840F1000018EB0E0B58EB57
:10119000000840F100008F1A4FF000013CBFC94326
:1011A000661B14BFB5EB040C00213CBFC943F61B02
:1011B0004FEA17444EEA8E0E27EA04454FEA1C47D1
:1011C00004FB07622CEA074C05FB07F70CFB05F64E
:1011D00004FB0CFC16EB074642EB174216EB0C46E1
:1011E00042EB1C421BEB060658EB0202414146EA69
:1011F0009E0601D5BDE80189B619524141EB0101B6
:10120000A3F10103BDE801894FEA14454FEA1147F4
:1012100024EA054621EA074C05FB07F406FB07F71D
:101220000CFB06F105FB0CFC11EB074144EB1744EA
:101230004FEA124711EB0C4144EB1C4422EA074CE5
:1012400005FB07F206FB07F70CFB06F605FB0CFC9B
:1012500016EB074642EB174216EB0C4642EB1C45D9
:101260006A1854F1000148BF7047B619524141EB6A
:101270000101A3F10103704795F0000F37D04FEA49
:1012800011424FEA144721EA024624EA074C02FBC6
:1012900007F106FB07F70CFB06F402FB0CFC14EB52
:1012A000074441EB17414FEA154714EB0C4441EB5F
:1012B0001C4125EA074C02FB07F506FB07F70CFB70
:1012C00006F602FB0CFC16EB074645EB174516EB42
:1012D0000C4645EB1C42121951F1000148BF704702
:1012E000B619524141EB0101A3F1010370474FEAE6
:1012F00014454FEA114724EA054621EA074C05FB4D
:1013000007F106FB07F70CFB06F24FF0000605FBA2
:101310000CFC12EB074241EB174112EB0C4251EB74
:101320001C4148BF7047921841EB0101A3F1010332
:10133000704700001848806940F00800164988612D
:101340000846806940F0400088611448006820F435
:101350007000124908600846006840F440100860B8
:101360000E480C30006840F020000C490C31086039
:101370000B48006820F470000949086008460068BE
:1013800040F44010086006480C30006840F020002F
:1013900003490C310860704700100240000C014006
:1013A0000018014000B5002015490861C8601420EC
:1013B000486100208861C8610846006840F001006B
:1013C0000860084640680F4908400D4948600846D3
:1013D00000680D4908400A4908600846006820F482
:1013E000802008600846406820F4FE004860002025
:1013F000886000214FF0006000F058F800BD000048
:10140000001002400000FFF8FFFFF6FE2DE9F0415A
:101410000746884614461D46284600F033F8C5F1B5
:10142000040007FA00F60F20284100EA08000643EE
:1014300006F00F06E21704EBD2625211920002F19D
:10144000E022D2F800212146E31704EBD3635B11BD
:10145000A4EB431C012303FA0CF31A432046E317C1
:1014600004EBD3635B119B0003F1E023C3F800217D
:101470000348005D40EA061001490855BDE8F081C7
:1014800000E400E00146072323EA01021202054BB3
:1014900018684FF6FF031840034B18431043014BE5
:1014A000186070470CED00E00000FA05024A0A409F
:1014B0000243024B1A60704780FFFF1F08ED00E0F7
:1014C00030B504460025FFF76DFF1F48006840F463
:1014D00080301D49086000BF1B480068400C002890
:1014E000FAD04FF4806018494860A01EC4B2084684
:1014F000406840EA844048600846406840F48030D4
:1015000048601248006840F03200104908600E48F8
:10151000006840F080700C49086000BF0A4800680D
:10152000400E0028FAD00848406840F00200064902
:10153000486005E004484068C0F3870505F00305EE
:10154000022DF7D130BD0000001002400020024003
:101550001E49098801F0200111B31C49091D0988A1
:10156000C8B21B49098801F40041C9B91849098862
:1015700001F4804161B10A2803D00021144A11808E
:1015800023E01349098841F40041114A11801CE00D
:101590000D2806D10E49098841F480410C4A11807A
:1015A00013E00B490988C1F30D010A4A5054084958
:1015B0000988491C064A11801146098842F6DF62F3
:1015C000914202DD0021024A11807047003801403B
:1015D00008000020481F0020490050EAC12018BF21
:1015E00004204A0D18BF40F0010040F2FF72B2EB38
:1015F000515F08BF40F00200012808BF0520704776
:10160000014600BF704700004FF0E021096921F05A
:1016100004014FF0E0221161C21700EB5272C2F3D5
:10162000C702074B1A701946097801EB4102C2EB59
:10163000C1114FF6FF7202EAC101024A11807047E0
:10164000000000200200002001460D4A12884A4393
:101650004FF0E0235A6100229A6101221A6100BF13
:101660004FF0E022106900F001021AB100F480325C
:10167000002AF5D000224FF0E0231A619A617047EA
:101680000200002000BF054A128802F04002002A32
:10169000F9D0C2B2014B1B1D1A80704700380140BF
:1016A000ADF57B6D00BF4FF0000A4FF47A6104A8DE
:1016B000FEF75CFE0920FFF703FF4FF4E1314820FD
:1016C00000F04CF94820FFF79FFFFFF733FE00259D
:1016D00086E04448008800F4004000285CD041487F
:1016E0000088C0F30D0739463FA0FEF79BFD00269A
:1016F000B14617E04148805D2C2809D03F48805D05
:1017000009EB890100EB410030381FFA80F907E04E
:101710002846691C8DB204A921F810904FF00009E9
:10172000701C86B2BE42E5DB00202E49088040F2E4
:10173000CF70854203D104A800F092F88046294674
:101740002FA0FEF76FFD002423E004A830F814104A
:10175000224630A0FEF766FD40F2CF7085420BD1E5
:1017600058F8240000F084F902460B460094CDE9B5
:1017700002012DA0FEF756FD2F48006808B9012090
:1017800000E000202C4908600A20FFF75DFF601C84
:1017900084B2AC4224DAD8E70AF101001FFA80FAD9
:1017A000C8209AFBF0F100FB11A0B0B923A0FEF70E
:1017B00039FD2948006808B9012000E000202649C9
:1017C00008601420FFF740FF2448D0F8940108B9BE
:1017D000012000E00020204908600A20FFF734FFC4
:1017E00077E7000008000020B7A2CBCDB5C4B3A4B2
:1017F000B6C8CEAA3A0D0A25640D0A00481F00207B
:10180000B7A2CBCDC1CBA3BA2564B8F6CAFDBEDD65
:101810000D0A000068616E5F646174613A25642C92
:1018200025640D0A00000000736D6F793A256C661F
:101830002C25640D0A00000094012342C7EBCAE482
:10184000C8EBCAFDBEDD2CD2D4BBD8B3B5BCFCBD41
:10185000E1CAF80D0A000000948121420080214273
:101860002DE9F047064640F2CF794FF013080024E7
:101870006DE00027A8F1010000EBD071B4EB610F1F
:101880001CDA002509E0601B36F81000611936F8F3
:10189000111008440744681C85B2601C8542F2DBC5
:1018A00036F81400391A6000401CB1FBF0FA5046BB
:1018B00000F04EFA284941F8240046E008F1010002
:1018C00000EBD071A9EB6101A14220DA002509E00B
:1018D000601B36F81000611936F8111008440744EF
:1018E000681C85B2A9EB0400A842F1DC36F81400AC
:1018F000391AA9EB04000122C2EB4000B1FBF0FA57
:10190000504600F025FA144941F824001DE0002556
:1019100009E0601B36F81000611936F81110084410
:101920000744681C85B208F1010000EBD071B5EBEB
:10193000610FEEDB36F81400381AB0FBF8FA5046A7
:1019400000F006FA044941F82400601C84B24C45BA
:101950008FDB0148BDE8F0870C0000202DE9F05F27
:1019600005460E46300100F0F3F981462E4905FB8D
:1019700001F000F0EDF98246494600F007F907460C
:10198000384600F0C5F984B2204600F0E1F98346FC
:10199000394600F0BDFA82464FF0834100F0ECF981
:1019A000814600F0B5F980464FF6FF7000EA041456
:1019B00004EB080084B21D48806940F004001B4914
:1019C00088610846806940F4804088611848006852
:1019D00020F47F60164908600846006840F40B60F8
:1019E00008601248C06840F480401049C86008464A
:1019F000C06820F48040C8600E480480001D008844
:101A000042F20C0108430B49091D08800846008872
:101A100040F0200008800223252203210846FFF71A
:101A2000F5FCBDE8F09F000040420F0000100240AE
:101A3000040801400838014010B500290AD0087890
:101A4000002807D005487844FFF778F8002801D02F
:101A5000002010BD0248784410BD0000820600003E
:101A60007A0600000808A0F500114FEA310170471E
:101A700043004FEAD30C4FEA3C0C43401FBF4007E2
:101A80000CF1605113F0FE4F70471CF0006F03D152
:101A900000200CF0004170470CF0004343EA507006
:101AA00010B540EACC0000F0E8F900BF0000009259
:101AB0004FEA0001FFF7D6BF4FF000414FF00000A2
:101AC000A1F500217047000090EA010F48BF81F0A6
:101AD000004100F12E82421A3CBF801A89184FEA59
:101AE000D0524FF07F4C1CEA410FA2EBD15318BFEC
:101AF0009CEA026F00F03B804FF0004C4CEA002063
:101B00004CEA012121FA03FC10EB0C0C1ED202F16D
:101B1000FF325FEA1C2040EBC25038BF70471CF018
:101B20007F0F4FEA400C18BFBCF17F4F38BF7047A2
:101B3000C3F12003994008BF20F00100BCF17F4FA2
:101B400038BF7047A0F1C04000F0DDB94FEA3C005B
:101B5000000A40EBC25028BF1CF0FF0F4FEA400CB8
:101B6000E6D018BFBCF17F4F38BF7047EAE79CEA68
:101B7000026F05D010EA5C0F08BF00F0004070470C
:101B800010B500F07AF900BF64FBBE3E4FF47F0C45
:101B90001CEAD0121EBF1CEAD11392EA0C0F93EA82
:101BA0000C0F00F0858090EA010F48BF42F480726C
:101BB00040F4000C41F400002CF07F4120F07F4005
:101BC00000B58142A2EB03020FF2081CACEB504EB1
:101BD000C0F100009EF800E04FEA4E0E00FB0EFC44
:101BE00038BF49004FEA2C1C02F5FA020CFB0EF339
:101BF0004FEACE1E4FEA112C4FEAC1210EEB635E75
:101C000042EB22420EFB0CFC4FEA1C5300FB03117B
:101C10004FEA112C4FEA01310EFB0CFC4FEADC4C71
:101C200000FB0C11C14228BF09184CEB03335DF8CF
:101C300004EB10EB410143EBC250B2F57C0F38BF0F
:101C4000704729D512F0F00F1CBF00F1C04000F022
:101C500000407047008182838485868788898B8CC9
:101C60008D8E8F919293959697999A9C9D9FA0A205
:101C7000A3A5A7A8AAACAEB0B2B3B5B7B9BCBEC055
:101C8000C2C5C7C9CCCED1D4D7D9DCDFE2E6E9ECF6
:101C9000F0F3F7FAFE0000004FEA400C0CF1807CF4
:101CA000BCF17E4F28BF7047B0F1C04000F02BB9A7
:101CB00090EA010F0CEAD11348BF42F480726245EA
:101CC00038BF634507D213F47F0F16D080EA0100B6
:101CD00000F00040704710B500F0CFF8097EFC3EE0
:101CE00000F005B880EA010000F00040704780EA8B
:101CF000010000F0004000F006B912F47F0F04BFAD
:101D00000248704780EA010000F0FDB80000C07F83
:101D1000C10DD1F19E0206DB4FEA002343F00043E0
:101D200023FA02F07047004207D54FEA4001B1F1B3
:101D3000FE4F02D24FF00000704710B500F09DF842
:101D400049922480002070476FEA2000704700000D
:101D5000B0FA80F310FA03F2C3F19D030AD0D9055B
:101D600001EB1220530638BF704700F1010008BF95
:101D700020F00100704700004FF47F0C1CEAD012E5
:101D80001EBF1CEAD11392EA0C0F93EA0C0F00F06D
:101D9000478090EA010F48BF42F480724FF0004C38
:101DA0004CEA00204CEA012102EB0302A0FB0113E4
:101DB000A2F50002002918BF43F001035B0028BF11
:101DC0004FEA330342EB22425FEA132C4CEBC25042
:101DD0002EBFBCEB436FB2F57C0F70474FEA036C2C
:101DE000BCF1004F08BF20F00100B2F57C0F38BFF6
:101DF00070470BD582F0FF0212F5803FC8BF7047D5
:101E000000F1C040D8BF00F00040704700F5000C62
:101E10005FEA4C0C48BF7047B0F1C04000F073B8A7
:101E200090EA010F0CEAD11348BF42F48072624578
:101E300038BF634504D280EA010000F000407047DB
:101E400010B500F01AF800BF8900013E00F007B895
:101E500000F009B85FEA410C5FEA1C6C08D080EA28
:101E6000010000F050B85FEA400C5FEA1C6CF6D14C
:101E70004FF00040A0F5800070470EF1020E2EF0EA
:101E8000030E5EF8044B244204D44FEA4102B2F13F
:101E90007F4F11D84FEA4003B3F17F4F0CD80ED1DA
:101EA0004FEAD07CB2F17F4F0CEB4C0C0CF1020CE2
:101EB00008BF4CEBD17C04E04FF0080C01E04FEA86
:101EC000D17C0CEB4C0324FA03F404F00704B4F1C6
:101ED000040C06D20EEB840CBDE810404CF0010C53
:101EE0006047DFE80CF0070802024FF00040A0F561
:101EF000800010BD0846420018BFD2F1807288BF32
:101F000000F0004010BDFF2141EAD050C0057047ED
:101F100080F0004090EA010F7FF5DDAD81F00041D7
:101F200000F007B890EA010F48BF81F000413FF58B
:101F3000D2AD421A04D882F00042A0EB0200114454
:101F40004FEAD0524FF07F4C1CEA410FA2EBD15325
:101F500018BF9CEA026F4AD04FF0004C4CEA0020B8
:101F60004CEA012121FA03FCB0EB0C0C0FD412F067
:101F7000FE0F36D05FEA4C001DD5001240EBC25078
:101F800038BF70471CF03F0F18BF70470BE0A2F13D
:101F900001025FEA1C2040EBC25038BF70471CF0C2
:101FA0007F0F18BF7047C3F12003994014BF401E34
:101FB00020F00100704780084FEA122308BF7047E5
:101FC000B0FA80FCA2EB0C02CCF1280C60FA0CF009
:101FD00093EA122F04BF00EBC25070474FEAC37060
:101FE0007047130A5FEADC1008BF7047F6E79CEA07
:101FF000026F04D010EA5C0F08BF0020704710B5D4
:10200000FFF73BFF40DFF63E81F000407047FEF7F0
:1020100008BB000002400000000000A0000000001B
:1020200005400000000000C8000000000C40000057
:102030000000409C00000000194000000020BCBED1
:102040000000000034400000BFC91B8E00000004E7
:10205000B5400000504BCFD06607E2CF0100000032
:102060006C4100003E8251AADFEEA734010000005F
:10207000D9420000DCB5A0E23A301F97FFFFFFFF16
:10208000B4450000FD25A0C8E9A3C14FFFFFFFFF35
:10209000FF3F00000000008000000000FF3F000044
:1020A0000000008000000000E42000080000002084
:1020B0000C0000006C010008F02000080C0000205B
:1020C0007C520000880100081C0000004300000052
:1020D000F8FFFFFF0C0000000E0000000F000000E2
:1020E0002E000000000000000000000000000000C2
:0400000508000131BD
:00000001FF
